{
    "abi": [
        {
            "type": "function",
            "name": "createCampaign",
            "inputs": [
                {
                    "name": "_owner",
                    "type": "address",
                    "internalType": "address"
                },
                {
                    "name": "_title",
                    "type": "string",
                    "internalType": "string"
                },
                {
                    "name": "_description",
                    "type": "string",
                    "internalType": "string"
                },
                {
                    "name": "_target",
                    "type": "uint256",
                    "internalType": "uint256"
                },
                {
                    "name": "_deadline",
                    "type": "uint256",
                    "internalType": "uint256"
                }
            ],
            "outputs": [
                {
                    "name": "",
                    "type": "uint256",
                    "internalType": "uint256"
                }
            ],
            "stateMutability": "nonpayable"
        },
        {
            "type": "function",
            "name": "donateToCampaign",
            "inputs": [
                {
                    "name": "_id",
                    "type": "uint256",
                    "internalType": "uint256"
                }
            ],
            "outputs": [],
            "stateMutability": "payable"
        },
        {
            "type": "function",
            "name": "getCampaigns",
            "inputs": [],
            "outputs": [
                {
                    "name": "",
                    "type": "tuple[]",
                    "internalType": "struct CrowdFunding.Campaign[]",
                    "components": [
                        {
                            "name": "owner",
                            "type": "address",
                            "internalType": "address"
                        },
                        {
                            "name": "title",
                            "type": "string",
                            "internalType": "string"
                        },
                        {
                            "name": "description",
                            "type": "string",
                            "internalType": "string"
                        },
                        {
                            "name": "target",
                            "type": "uint256",
                            "internalType": "uint256"
                        },
                        {
                            "name": "deadline",
                            "type": "uint256",
                            "internalType": "uint256"
                        },
                        {
                            "name": "amountCollected",
                            "type": "uint256",
                            "internalType": "uint256"
                        },
                        {
                            "name": "donators",
                            "type": "address[]",
                            "internalType": "address[]"
                        },
                        {
                            "name": "donations",
                            "type": "uint256[]",
                            "internalType": "uint256[]"
                        }
                    ]
                }
            ],
            "stateMutability": "view"
        },
        {
            "type": "function",
            "name": "getDonators",
            "inputs": [
                {
                    "name": "_id",
                    "type": "uint256",
                    "internalType": "uint256"
                }
            ],
            "outputs": [
                {
                    "name": "",
                    "type": "address[]",
                    "internalType": "address[]"
                },
                {
                    "name": "",
                    "type": "uint256[]",
                    "internalType": "uint256[]"
                }
            ],
            "stateMutability": "view"
        }
    ],
    "bytecode": {
        "object": "0x608060405234801561001057600080fd5b50610bc5806100206000396000f3fe60806040526004361061003f5760003560e01c8063075843c3146100445780630fa91fa91461007757806342a4fda8146100a5578063a6b03633146100ba575b600080fd5b34801561005057600080fd5b5061006461005f3660046106f9565b6100dc565b6040519081526020015b60405180910390f35b34801561008357600080fd5b5061009761009236600461078d565b6101be565b60405161006e9291906107a6565b6100b86100b336600461078d565b61028d565b005b3480156100c657600080fd5b506100cf610353565b60405161006e91906108e6565b6001546000908152602081905260408120600481015442116101445760405162461bcd60e51b815260206004820152601e60248201527f446561646c696e65206d75737420626520696e20746865206675747572650000604482015260640160405180910390fd5b80546001600160a01b0319166001600160a01b0388161781556001810161016b8782610a5e565b506002810161017a8682610a5e565b50600381018490556004810183905560006005820181905560018054916101a083610b34565b9190505550600180546101b39190610b4d565b979650505050505050565b6000818152602081815260409182902060068101805484518185028101850190955280855260609485949293600701929091849183018282801561022b57602002820191906000526020600020905b81546001600160a01b0316815260019091019060200180831161020d575b505050505091508080548060200260200160405190810160405280929190818152602001828054801561027d57602002820191906000526020600020905b815481526020019060010190808311610269575b5050505050905091509150915091565b600081815260208181526040808320600681018054600180820183559186528486200180546001600160a01b0319163317905560078201805491820181558552928420349301839055805491519293909290916001600160a01b03169084908381818185875af1925050503d8060008114610324576040519150601f19603f3d011682016040523d82523d6000602084013e610329565b606091505b50509050801561034d57828260050160008282546103479190610b66565b90915550505b50505050565b6060600060015467ffffffffffffffff81111561037257610372610656565b6040519080825280602002602001820160405280156103f457816020015b6103e160405180610100016040528060006001600160a01b03168152602001606081526020016060815260200160008152602001600081526020016000815260200160608152602001606081525090565b8152602001906001900390816103905790505b50905060005b60015481101561065057600081815260208181526040918290208251610100810190935280546001600160a01b03168352600181018054919284019161043f906109d9565b80601f016020809104026020016040519081016040528092919081815260200182805461046b906109d9565b80156104b85780601f1061048d576101008083540402835291602001916104b8565b820191906000526020600020905b81548152906001019060200180831161049b57829003601f168201915b505050505081526020016002820180546104d1906109d9565b80601f01602080910402602001604051908101604052809291908181526020018280546104fd906109d9565b801561054a5780601f1061051f5761010080835404028352916020019161054a565b820191906000526020600020905b81548152906001019060200180831161052d57829003601f168201915b50505050508152602001600382015481526020016004820154815260200160058201548152602001600682018054806020026020016040519081016040528092919081815260200182805480156105ca57602002820191906000526020600020905b81546001600160a01b031681526001909101906020018083116105ac575b505050505081526020016007820180548060200260200160405190810160405280929190818152602001828054801561062257602002820191906000526020600020905b81548152602001906001019080831161060e575b50505050508152505082828151811061063d5761063d610b79565b60209081029190910101526001016103fa565b50919050565b634e487b7160e01b600052604160045260246000fd5b600082601f83011261067d57600080fd5b813567ffffffffffffffff8082111561069857610698610656565b604051601f8301601f19908116603f011681019082821181831017156106c0576106c0610656565b816040528381528660208588010111156106d957600080fd5b836020870160208301376000602085830101528094505050505092915050565b600080600080600060a0868803121561071157600080fd5b85356001600160a01b038116811461072857600080fd5b9450602086013567ffffffffffffffff8082111561074557600080fd5b61075189838a0161066c565b9550604088013591508082111561076757600080fd5b506107748882890161066c565b9598949750949560608101359550608001359392505050565b60006020828403121561079f57600080fd5b5035919050565b604080825283519082018190526000906020906060840190828701845b828110156107e85781516001600160a01b0316845292840192908401906001016107c3565b5050508381038285015284518082528583019183019060005b8181101561081d57835183529284019291840191600101610801565b5090979650505050505050565b6000815180845260005b8181101561085057602081850181015186830182015201610834565b506000602082860101526020601f19601f83011685010191505092915050565b60008151808452602080850194506020840160005b838110156108aa5781516001600160a01b031687529582019590820190600101610885565b509495945050505050565b60008151808452602080850194506020840160005b838110156108aa578151875295820195908201906001016108ca565b600060208083018184528085518083526040925060408601915060408160051b87010184880160005b838110156109cb57888303603f19018552815180516001600160a01b0316845261010088820151818a8701526109478287018261082a565b915050878201518582038987015261095f828261082a565b606084810151908801526080808501519088015260a0808501519088015260c080850151888303828a015291935091506109998382610870565b9250505060e080830151925085820381870152506109b781836108b5565b96890196945050509086019060010161090f565b509098975050505050505050565b600181811c908216806109ed57607f821691505b60208210810361065057634e487b7160e01b600052602260045260246000fd5b601f821115610a59576000816000526020600020601f850160051c81016020861015610a365750805b601f850160051c820191505b81811015610a5557828155600101610a42565b5050505b505050565b815167ffffffffffffffff811115610a7857610a78610656565b610a8c81610a8684546109d9565b84610a0d565b602080601f831160018114610ac15760008415610aa95750858301515b600019600386901b1c1916600185901b178555610a55565b600085815260208120601f198616915b82811015610af057888601518255948401946001909101908401610ad1565b5085821015610b0e5787850151600019600388901b60f8161c191681555b5050505050600190811b01905550565b634e487b7160e01b600052601160045260246000fd5b600060018201610b4657610b46610b1e565b5060010190565b81810381811115610b6057610b60610b1e565b92915050565b80820180821115610b6057610b60610b1e565b634e487b7160e01b600052603260045260246000fdfea2646970667358221220dbf3709d6b012e05b927e541857f25fbf26e52de0b5f333ac8ddba4248fb724c64736f6c63430008170033",
        "linkReferences": {}
    },
    "methodIdentifiers": {
        "createCampaign(address,string,string,uint256,uint256)": "075843c3",
        "donateToCampaign(uint256)": "42a4fda8",
        "getCampaigns()": "a6b03633",
        "getDonators(uint256)": "0fa91fa9"
    },
    "id": 0
}